:020000020000FC
:1000000001E20EBF0FEF0DBF002701B91FEF14B9BA
:1000100005B9079B0E942400069B0E942800059BAF
:100020000E942C00049B0E943000039B0E9434001D
:10003000029B0E943A00019B0E944300009B0E9489
:1000400048000E944D00E5CF03B1039505B908951E
:1000500003B10A9505B9089503B1029505B908954C
:1000600003B1009505B9089503B106950695069567
:1000700005B9089503B117E022272395011BE8F77E
:100080002A9525B9089503B11EE7012305B90895FE
:1000900003B111E8012B05B90895FFE0DA95F1F7F6
:0A00A000EA95E1F7FA95D1F708950B
:00000001FF
