:020000020000FC
:1000000001E20EBF0FEF0DBF0FEF04B9002705B9D6
:100010004FEE0E9452000E9452000E94520045ED95
:100020000E9452004EEB0E9452000E9452000E9419
:1000300052000E94520045ED0E9452000E94520060
:100040000E9452004EEB0E9452004FEE0E9452005E
:100050000E9452004EEB0E9452000E9452000E94E9
:10006000520043EB0E94520040EA0E9452000E945C
:1000700052000E9452000E94520043EB0E94520024
:100080000E94520040EA0E9452004EEB0E94520031
:100090000E9452000C944A0014E11A95F1F72A9537
:1000A000D9F708959AEFA095A5B9242F0E944C0086
:0600B0009A95C9F70895BE
:00000001FF
