S00F00004C414231305F312E7372656355
S113000071C0000081C000007FC000000EC100006C
S113001034C1000079C0000077C0000075C0000042
S113002073C0000071C000006FC000006DC000000C
S11300306BC0000069C0000067C0000065C000001C
S113004063C0000092C000005FC000005DC00000FB
S11300505BC0000059C0000057C00000AEC00000E3
S113006053C0000051C000004FC000004DC000004C
S11300704BC0000049C0000047C0000045C000005C
S113008043C0000041C000003FC000003DC000006C
S11300903BC0000039C0000037C0000035C000007C
S11300A033C0000031C000002FC000002DC000008C
S11300B02BC0000029C0000027C0000025C000009C
S11300C023C0000021C000001FC000001DC00000AC
S11300D01BC0000019C0000017C0000015C00000BC
S11300E013C0000011241FBECFEFD1E2DEBFCDBF8D
S11300F000E00CBF22E0A0E0B2E001C01D92A230FB
S1130100B207E1F7E2D0F1C07BCF8FEF84B915B825
S11301100895883028F491E001C0990F8A95EAF790
S113012083B1982795B908958CE08DBB80EE8093B8
S113013069007894089514BC81E085BDEEE6F0E092
S11301408081816080830895109280008CE0809388
S1130150810088E09DE39093890080938800EFE616
S1130160F0E080818260808308951F920F920FB621
S11301700F9211240BB60F922F933F934F935F93DB
S11301806F937F938F939F93AF93BF93EF93FF935B
S113019085E0BFDFFF91EF91BF91AF919F918F9168
S11301A07F916F915F914F913F912F910F900BBE73
S11301B00F900FBE0F901F9018951F920F920FB6BD
S11301C00F9211240BB60F922F933F934F935F938B
S11301D06F937F938F939F93AF93BF93EF93FF930B
S11301E08091000290910102019690930102809304
S11301F000028432944F31F486E08BDF10920102C6
S113020010920002FF91EF91BF91AF919F918F9156
S11302107F916F915F914F913F912F910F900BBE02
S11302200F900FBE0F901F9018951F920F920FB64C
S11302300F9211240BB60F922F933F934F935F931A
S11302406F937F938F939F93AF93BF93EF93FF939A
S113025082E05FDFFF91EF91BF91AF919F918F910A
S11302607F916F915F914F913F912F910F900BBEB2
S11302700F900FBE0F901F9018951F920F920FB6FC
S11302800F9211240BB60F922F933F934F935F93CA
S11302906F937F938F939F93AF93BF93EF93FF934A
S11302A083E037DFFF91EF91BF91AF919F918F91E1
S11302B07F916F915F914F913F912F910F900BBE62
S11302C00F900FBE0F901F9018951FDF2DDF33DFA7
S11302D03BDF87E01EDF2FEF83ED90E3215080406A
S11102E09040E1F700C00000F4CFF894FFCF87
S9030000FC
